{
  "contractName": "Land",
  "abi": [
    {
      "inputs": [],
      "stateMutability": "nonpayable",
      "type": "constructor"
    },
    {
      "anonymous": false,
      "inputs": [
        {
          "indexed": true,
          "internalType": "uint256",
          "name": "_landId",
          "type": "uint256"
        }
      ],
      "name": "AddingLand",
      "type": "event"
    },
    {
      "anonymous": false,
      "inputs": [
        {
          "indexed": false,
          "internalType": "address",
          "name": "_sellerId",
          "type": "address"
        }
      ],
      "name": "LandRequested",
      "type": "event"
    },
    {
      "anonymous": false,
      "inputs": [
        {
          "indexed": false,
          "internalType": "address",
          "name": "_registrationId",
          "type": "address"
        }
      ],
      "name": "Registration",
      "type": "event"
    },
    {
      "anonymous": false,
      "inputs": [
        {
          "indexed": false,
          "internalType": "address",
          "name": "_id",
          "type": "address"
        }
      ],
      "name": "Rejected",
      "type": "event"
    },
    {
      "anonymous": false,
      "inputs": [
        {
          "indexed": false,
          "internalType": "address",
          "name": "_buyerId",
          "type": "address"
        }
      ],
      "name": "RequestApproved",
      "type": "event"
    },
    {
      "anonymous": false,
      "inputs": [
        {
          "indexed": false,
          "internalType": "address",
          "name": "_id",
          "type": "address"
        }
      ],
      "name": "Verified",
      "type": "event"
    },
    {
      "inputs": [
        {
          "internalType": "address",
          "name": "",
          "type": "address"
        }
      ],
      "name": "BuyerMapping",
      "outputs": [
        {
          "internalType": "address",
          "name": "id",
          "type": "address"
        },
        {
          "internalType": "string",
          "name": "name",
          "type": "string"
        },
        {
          "internalType": "uint256",
          "name": "age",
          "type": "uint256"
        },
        {
          "internalType": "string",
          "name": "city",
          "type": "string"
        },
        {
          "internalType": "string",
          "name": "aadharNumber",
          "type": "string"
        },
        {
          "internalType": "string",
          "name": "panNumber",
          "type": "string"
        },
        {
          "internalType": "string",
          "name": "document",
          "type": "string"
        },
        {
          "internalType": "string",
          "name": "email",
          "type": "string"
        }
      ],
      "stateMutability": "view",
      "type": "function",
      "constant": true
    },
    {
      "inputs": [
        {
          "internalType": "address",
          "name": "",
          "type": "address"
        }
      ],
      "name": "BuyerRejection",
      "outputs": [
        {
          "internalType": "bool",
          "name": "",
          "type": "bool"
        }
      ],
      "stateMutability": "view",
      "type": "function",
      "constant": true
    },
    {
      "inputs": [
        {
          "internalType": "address",
          "name": "",
          "type": "address"
        }
      ],
      "name": "BuyerVerification",
      "outputs": [
        {
          "internalType": "bool",
          "name": "",
          "type": "bool"
        }
      ],
      "stateMutability": "view",
      "type": "function",
      "constant": true
    },
    {
      "inputs": [
        {
          "internalType": "uint256",
          "name": "",
          "type": "uint256"
        }
      ],
      "name": "InspectorMapping",
      "outputs": [
        {
          "internalType": "uint256",
          "name": "id",
          "type": "uint256"
        },
        {
          "internalType": "string",
          "name": "name",
          "type": "string"
        },
        {
          "internalType": "uint256",
          "name": "age",
          "type": "uint256"
        },
        {
          "internalType": "string",
          "name": "designation",
          "type": "string"
        }
      ],
      "stateMutability": "view",
      "type": "function",
      "constant": true
    },
    {
      "inputs": [
        {
          "internalType": "uint256",
          "name": "",
          "type": "uint256"
        }
      ],
      "name": "LandOwner",
      "outputs": [
        {
          "internalType": "address",
          "name": "",
          "type": "address"
        }
      ],
      "stateMutability": "view",
      "type": "function",
      "constant": true
    },
    {
      "inputs": [
        {
          "internalType": "uint256",
          "name": "",
          "type": "uint256"
        }
      ],
      "name": "LandVerification",
      "outputs": [
        {
          "internalType": "bool",
          "name": "",
          "type": "bool"
        }
      ],
      "stateMutability": "view",
      "type": "function",
      "constant": true
    },
    {
      "inputs": [],
      "name": "Land_Inspector",
      "outputs": [
        {
          "internalType": "address",
          "name": "",
          "type": "address"
        }
      ],
      "stateMutability": "view",
      "type": "function",
      "constant": true
    },
    {
      "inputs": [
        {
          "internalType": "uint256",
          "name": "",
          "type": "uint256"
        }
      ],
      "name": "PaymentReceived",
      "outputs": [
        {
          "internalType": "bool",
          "name": "",
          "type": "bool"
        }
      ],
      "stateMutability": "view",
      "type": "function",
      "constant": true
    },
    {
      "inputs": [
        {
          "internalType": "address",
          "name": "",
          "type": "address"
        }
      ],
      "name": "RegisteredAddressMapping",
      "outputs": [
        {
          "internalType": "bool",
          "name": "",
          "type": "bool"
        }
      ],
      "stateMutability": "view",
      "type": "function",
      "constant": true
    },
    {
      "inputs": [
        {
          "internalType": "address",
          "name": "",
          "type": "address"
        }
      ],
      "name": "RegisteredBuyerMapping",
      "outputs": [
        {
          "internalType": "bool",
          "name": "",
          "type": "bool"
        }
      ],
      "stateMutability": "view",
      "type": "function",
      "constant": true
    },
    {
      "inputs": [
        {
          "internalType": "address",
          "name": "",
          "type": "address"
        }
      ],
      "name": "RegisteredSellerMapping",
      "outputs": [
        {
          "internalType": "bool",
          "name": "",
          "type": "bool"
        }
      ],
      "stateMutability": "view",
      "type": "function",
      "constant": true
    },
    {
      "inputs": [
        {
          "internalType": "uint256",
          "name": "",
          "type": "uint256"
        }
      ],
      "name": "RequestStatus",
      "outputs": [
        {
          "internalType": "bool",
          "name": "",
          "type": "bool"
        }
      ],
      "stateMutability": "view",
      "type": "function",
      "constant": true
    },
    {
      "inputs": [
        {
          "internalType": "uint256",
          "name": "",
          "type": "uint256"
        }
      ],
      "name": "RequestedLands",
      "outputs": [
        {
          "internalType": "bool",
          "name": "",
          "type": "bool"
        }
      ],
      "stateMutability": "view",
      "type": "function",
      "constant": true
    },
    {
      "inputs": [
        {
          "internalType": "uint256",
          "name": "",
          "type": "uint256"
        }
      ],
      "name": "RequestsMapping",
      "outputs": [
        {
          "internalType": "uint256",
          "name": "reqId",
          "type": "uint256"
        },
        {
          "internalType": "address",
          "name": "sellerId",
          "type": "address"
        },
        {
          "internalType": "address",
          "name": "buyerId",
          "type": "address"
        },
        {
          "internalType": "uint256",
          "name": "landId",
          "type": "uint256"
        }
      ],
      "stateMutability": "view",
      "type": "function",
      "constant": true
    },
    {
      "inputs": [
        {
          "internalType": "address",
          "name": "",
          "type": "address"
        }
      ],
      "name": "SellerMapping",
      "outputs": [
        {
          "internalType": "address",
          "name": "id",
          "type": "address"
        },
        {
          "internalType": "string",
          "name": "name",
          "type": "string"
        },
        {
          "internalType": "uint256",
          "name": "age",
          "type": "uint256"
        },
        {
          "internalType": "string",
          "name": "aadharNumber",
          "type": "string"
        },
        {
          "internalType": "string",
          "name": "panNumber",
          "type": "string"
        },
        {
          "internalType": "string",
          "name": "landsOwned",
          "type": "string"
        },
        {
          "internalType": "string",
          "name": "document",
          "type": "string"
        }
      ],
      "stateMutability": "view",
      "type": "function",
      "constant": true
    },
    {
      "inputs": [
        {
          "internalType": "address",
          "name": "",
          "type": "address"
        }
      ],
      "name": "SellerRejection",
      "outputs": [
        {
          "internalType": "bool",
          "name": "",
          "type": "bool"
        }
      ],
      "stateMutability": "view",
      "type": "function",
      "constant": true
    },
    {
      "inputs": [
        {
          "internalType": "address",
          "name": "",
          "type": "address"
        }
      ],
      "name": "SellerVerification",
      "outputs": [
        {
          "internalType": "bool",
          "name": "",
          "type": "bool"
        }
      ],
      "stateMutability": "view",
      "type": "function",
      "constant": true
    },
    {
      "inputs": [
        {
          "internalType": "uint256",
          "name": "",
          "type": "uint256"
        }
      ],
      "name": "buyers",
      "outputs": [
        {
          "internalType": "address",
          "name": "",
          "type": "address"
        }
      ],
      "stateMutability": "view",
      "type": "function",
      "constant": true
    },
    {
      "inputs": [],
      "name": "buyersCount",
      "outputs": [
        {
          "internalType": "uint256",
          "name": "",
          "type": "uint256"
        }
      ],
      "stateMutability": "view",
      "type": "function",
      "constant": true
    },
    {
      "inputs": [],
      "name": "inspectorsCount",
      "outputs": [
        {
          "internalType": "uint256",
          "name": "",
          "type": "uint256"
        }
      ],
      "stateMutability": "view",
      "type": "function",
      "constant": true
    },
    {
      "inputs": [
        {
          "internalType": "uint256",
          "name": "",
          "type": "uint256"
        }
      ],
      "name": "lands",
      "outputs": [
        {
          "internalType": "uint256",
          "name": "id",
          "type": "uint256"
        },
        {
          "internalType": "uint256",
          "name": "area",
          "type": "uint256"
        },
        {
          "internalType": "string",
          "name": "city",
          "type": "string"
        },
        {
          "internalType": "string",
          "name": "state",
          "type": "string"
        },
        {
          "internalType": "uint256",
          "name": "landPrice",
          "type": "uint256"
        },
        {
          "internalType": "uint256",
          "name": "propertyPID",
          "type": "uint256"
        },
        {
          "internalType": "uint256",
          "name": "physicalSurveyNumber",
          "type": "uint256"
        },
        {
          "internalType": "string",
          "name": "ipfsHash",
          "type": "string"
        },
        {
          "internalType": "string",
          "name": "document",
          "type": "string"
        }
      ],
      "stateMutability": "view",
      "type": "function",
      "constant": true
    },
    {
      "inputs": [],
      "name": "landsCount",
      "outputs": [
        {
          "internalType": "uint256",
          "name": "",
          "type": "uint256"
        }
      ],
      "stateMutability": "view",
      "type": "function",
      "constant": true
    },
    {
      "inputs": [],
      "name": "requestsCount",
      "outputs": [
        {
          "internalType": "uint256",
          "name": "",
          "type": "uint256"
        }
      ],
      "stateMutability": "view",
      "type": "function",
      "constant": true
    },
    {
      "inputs": [
        {
          "internalType": "uint256",
          "name": "",
          "type": "uint256"
        }
      ],
      "name": "sellers",
      "outputs": [
        {
          "internalType": "address",
          "name": "",
          "type": "address"
        }
      ],
      "stateMutability": "view",
      "type": "function",
      "constant": true
    },
    {
      "inputs": [],
      "name": "sellersCount",
      "outputs": [
        {
          "internalType": "uint256",
          "name": "",
          "type": "uint256"
        }
      ],
      "stateMutability": "view",
      "type": "function",
      "constant": true
    },
    {
      "inputs": [],
      "name": "getLandsCount",
      "outputs": [
        {
          "internalType": "uint256",
          "name": "",
          "type": "uint256"
        }
      ],
      "stateMutability": "view",
      "type": "function",
      "constant": true
    },
    {
      "inputs": [],
      "name": "getBuyersCount",
      "outputs": [
        {
          "internalType": "uint256",
          "name": "",
          "type": "uint256"
        }
      ],
      "stateMutability": "view",
      "type": "function",
      "constant": true
    },
    {
      "inputs": [],
      "name": "getSellersCount",
      "outputs": [
        {
          "internalType": "uint256",
          "name": "",
          "type": "uint256"
        }
      ],
      "stateMutability": "view",
      "type": "function",
      "constant": true
    },
    {
      "inputs": [],
      "name": "getRequestsCount",
      "outputs": [
        {
          "internalType": "uint256",
          "name": "",
          "type": "uint256"
        }
      ],
      "stateMutability": "view",
      "type": "function",
      "constant": true
    },
    {
      "inputs": [
        {
          "internalType": "uint256",
          "name": "i",
          "type": "uint256"
        }
      ],
      "name": "getArea",
      "outputs": [
        {
          "internalType": "uint256",
          "name": "",
          "type": "uint256"
        }
      ],
      "stateMutability": "view",
      "type": "function",
      "constant": true
    },
    {
      "inputs": [
        {
          "internalType": "uint256",
          "name": "i",
          "type": "uint256"
        }
      ],
      "name": "getCity",
      "outputs": [
        {
          "internalType": "string",
          "name": "",
          "type": "string"
        }
      ],
      "stateMutability": "view",
      "type": "function",
      "constant": true
    },
    {
      "inputs": [
        {
          "internalType": "uint256",
          "name": "i",
          "type": "uint256"
        }
      ],
      "name": "getState",
      "outputs": [
        {
          "internalType": "string",
          "name": "",
          "type": "string"
        }
      ],
      "stateMutability": "view",
      "type": "function",
      "constant": true
    },
    {
      "inputs": [
        {
          "internalType": "uint256",
          "name": "i",
          "type": "uint256"
        }
      ],
      "name": "getPrice",
      "outputs": [
        {
          "internalType": "uint256",
          "name": "",
          "type": "uint256"
        }
      ],
      "stateMutability": "view",
      "type": "function",
      "constant": true
    },
    {
      "inputs": [
        {
          "internalType": "uint256",
          "name": "i",
          "type": "uint256"
        }
      ],
      "name": "getPID",
      "outputs": [
        {
          "internalType": "uint256",
          "name": "",
          "type": "uint256"
        }
      ],
      "stateMutability": "view",
      "type": "function",
      "constant": true
    },
    {
      "inputs": [
        {
          "internalType": "uint256",
          "name": "i",
          "type": "uint256"
        }
      ],
      "name": "getSurveyNumber",
      "outputs": [
        {
          "internalType": "uint256",
          "name": "",
          "type": "uint256"
        }
      ],
      "stateMutability": "view",
      "type": "function",
      "constant": true
    },
    {
      "inputs": [
        {
          "internalType": "uint256",
          "name": "i",
          "type": "uint256"
        }
      ],
      "name": "getImage",
      "outputs": [
        {
          "internalType": "string",
          "name": "",
          "type": "string"
        }
      ],
      "stateMutability": "view",
      "type": "function",
      "constant": true
    },
    {
      "inputs": [
        {
          "internalType": "uint256",
          "name": "i",
          "type": "uint256"
        }
      ],
      "name": "getDocument",
      "outputs": [
        {
          "internalType": "string",
          "name": "",
          "type": "string"
        }
      ],
      "stateMutability": "view",
      "type": "function",
      "constant": true
    },
    {
      "inputs": [
        {
          "internalType": "uint256",
          "name": "id",
          "type": "uint256"
        }
      ],
      "name": "getLandOwner",
      "outputs": [
        {
          "internalType": "address",
          "name": "",
          "type": "address"
        }
      ],
      "stateMutability": "view",
      "type": "function",
      "constant": true
    },
    {
      "inputs": [
        {
          "internalType": "address",
          "name": "_sellerId",
          "type": "address"
        }
      ],
      "name": "verifySeller",
      "outputs": [],
      "stateMutability": "nonpayable",
      "type": "function"
    },
    {
      "inputs": [
        {
          "internalType": "address",
          "name": "_sellerId",
          "type": "address"
        }
      ],
      "name": "rejectSeller",
      "outputs": [],
      "stateMutability": "nonpayable",
      "type": "function"
    },
    {
      "inputs": [
        {
          "internalType": "address",
          "name": "_buyerId",
          "type": "address"
        }
      ],
      "name": "verifyBuyer",
      "outputs": [],
      "stateMutability": "nonpayable",
      "type": "function"
    },
    {
      "inputs": [
        {
          "internalType": "address",
          "name": "_buyerId",
          "type": "address"
        }
      ],
      "name": "rejectBuyer",
      "outputs": [],
      "stateMutability": "nonpayable",
      "type": "function"
    },
    {
      "inputs": [
        {
          "internalType": "uint256",
          "name": "_landId",
          "type": "uint256"
        }
      ],
      "name": "verifyLand",
      "outputs": [],
      "stateMutability": "nonpayable",
      "type": "function"
    },
    {
      "inputs": [
        {
          "internalType": "uint256",
          "name": "_id",
          "type": "uint256"
        }
      ],
      "name": "isLandVerified",
      "outputs": [
        {
          "internalType": "bool",
          "name": "",
          "type": "bool"
        }
      ],
      "stateMutability": "view",
      "type": "function",
      "constant": true
    },
    {
      "inputs": [
        {
          "internalType": "address",
          "name": "_id",
          "type": "address"
        }
      ],
      "name": "isVerified",
      "outputs": [
        {
          "internalType": "bool",
          "name": "",
          "type": "bool"
        }
      ],
      "stateMutability": "view",
      "type": "function",
      "constant": true
    },
    {
      "inputs": [
        {
          "internalType": "address",
          "name": "_id",
          "type": "address"
        }
      ],
      "name": "isRejected",
      "outputs": [
        {
          "internalType": "bool",
          "name": "",
          "type": "bool"
        }
      ],
      "stateMutability": "view",
      "type": "function",
      "constant": true
    },
    {
      "inputs": [
        {
          "internalType": "address",
          "name": "_id",
          "type": "address"
        }
      ],
      "name": "isSeller",
      "outputs": [
        {
          "internalType": "bool",
          "name": "",
          "type": "bool"
        }
      ],
      "stateMutability": "view",
      "type": "function",
      "constant": true
    },
    {
      "inputs": [
        {
          "internalType": "address",
          "name": "_id",
          "type": "address"
        }
      ],
      "name": "isBuyer",
      "outputs": [
        {
          "internalType": "bool",
          "name": "",
          "type": "bool"
        }
      ],
      "stateMutability": "view",
      "type": "function",
      "constant": true
    },
    {
      "inputs": [
        {
          "internalType": "address",
          "name": "_id",
          "type": "address"
        }
      ],
      "name": "isRegistered",
      "outputs": [
        {
          "internalType": "bool",
          "name": "",
          "type": "bool"
        }
      ],
      "stateMutability": "view",
      "type": "function",
      "constant": true
    },
    {
      "inputs": [
        {
          "internalType": "address",
          "name": "_id",
          "type": "address"
        }
      ],
      "name": "isLandInspector",
      "outputs": [
        {
          "internalType": "bool",
          "name": "",
          "type": "bool"
        }
      ],
      "stateMutability": "view",
      "type": "function",
      "constant": true
    },
    {
      "inputs": [
        {
          "internalType": "uint256",
          "name": "_id",
          "type": "uint256"
        }
      ],
      "name": "isRequested",
      "outputs": [
        {
          "internalType": "bool",
          "name": "",
          "type": "bool"
        }
      ],
      "stateMutability": "view",
      "type": "function",
      "constant": true
    },
    {
      "inputs": [
        {
          "internalType": "uint256",
          "name": "_id",
          "type": "uint256"
        }
      ],
      "name": "isApproved",
      "outputs": [
        {
          "internalType": "bool",
          "name": "",
          "type": "bool"
        }
      ],
      "stateMutability": "view",
      "type": "function",
      "constant": true
    },
    {
      "inputs": [
        {
          "internalType": "uint256",
          "name": "_landId",
          "type": "uint256"
        }
      ],
      "name": "isPaid",
      "outputs": [
        {
          "internalType": "bool",
          "name": "",
          "type": "bool"
        }
      ],
      "stateMutability": "view",
      "type": "function",
      "constant": true
    },
    {
      "inputs": [
        {
          "internalType": "uint256",
          "name": "_area",
          "type": "uint256"
        },
        {
          "internalType": "string",
          "name": "_city",
          "type": "string"
        },
        {
          "internalType": "string",
          "name": "_state",
          "type": "string"
        },
        {
          "internalType": "uint256",
          "name": "landPrice",
          "type": "uint256"
        },
        {
          "internalType": "uint256",
          "name": "_propertyPID",
          "type": "uint256"
        },
        {
          "internalType": "uint256",
          "name": "_surveyNum",
          "type": "uint256"
        },
        {
          "internalType": "string",
          "name": "_ipfsHash",
          "type": "string"
        },
        {
          "internalType": "string",
          "name": "_document",
          "type": "string"
        }
      ],
      "name": "addLand",
      "outputs": [],
      "stateMutability": "nonpayable",
      "type": "function"
    },
    {
      "inputs": [
        {
          "internalType": "string",
          "name": "_name",
          "type": "string"
        },
        {
          "internalType": "uint256",
          "name": "_age",
          "type": "uint256"
        },
        {
          "internalType": "string",
          "name": "_aadharNumber",
          "type": "string"
        },
        {
          "internalType": "string",
          "name": "_panNumber",
          "type": "string"
        },
        {
          "internalType": "string",
          "name": "_landsOwned",
          "type": "string"
        },
        {
          "internalType": "string",
          "name": "_document",
          "type": "string"
        }
      ],
      "name": "registerSeller",
      "outputs": [],
      "stateMutability": "nonpayable",
      "type": "function"
    },
    {
      "inputs": [
        {
          "internalType": "string",
          "name": "_name",
          "type": "string"
        },
        {
          "internalType": "uint256",
          "name": "_age",
          "type": "uint256"
        },
        {
          "internalType": "string",
          "name": "_aadharNumber",
          "type": "string"
        },
        {
          "internalType": "string",
          "name": "_panNumber",
          "type": "string"
        },
        {
          "internalType": "string",
          "name": "_landsOwned",
          "type": "string"
        }
      ],
      "name": "updateSeller",
      "outputs": [],
      "stateMutability": "nonpayable",
      "type": "function"
    },
    {
      "inputs": [],
      "name": "getSeller",
      "outputs": [
        {
          "internalType": "address[]",
          "name": "",
          "type": "address[]"
        }
      ],
      "stateMutability": "view",
      "type": "function",
      "constant": true
    },
    {
      "inputs": [
        {
          "internalType": "address",
          "name": "i",
          "type": "address"
        }
      ],
      "name": "getSellerDetails",
      "outputs": [
        {
          "internalType": "string",
          "name": "",
          "type": "string"
        },
        {
          "internalType": "uint256",
          "name": "",
          "type": "uint256"
        },
        {
          "internalType": "string",
          "name": "",
          "type": "string"
        },
        {
          "internalType": "string",
          "name": "",
          "type": "string"
        },
        {
          "internalType": "string",
          "name": "",
          "type": "string"
        },
        {
          "internalType": "string",
          "name": "",
          "type": "string"
        }
      ],
      "stateMutability": "view",
      "type": "function",
      "constant": true
    },
    {
      "inputs": [
        {
          "internalType": "string",
          "name": "_name",
          "type": "string"
        },
        {
          "internalType": "uint256",
          "name": "_age",
          "type": "uint256"
        },
        {
          "internalType": "string",
          "name": "_city",
          "type": "string"
        },
        {
          "internalType": "string",
          "name": "_aadharNumber",
          "type": "string"
        },
        {
          "internalType": "string",
          "name": "_panNumber",
          "type": "string"
        },
        {
          "internalType": "string",
          "name": "_document",
          "type": "string"
        },
        {
          "internalType": "string",
          "name": "_email",
          "type": "string"
        }
      ],
      "name": "registerBuyer",
      "outputs": [],
      "stateMutability": "nonpayable",
      "type": "function"
    },
    {
      "inputs": [
        {
          "internalType": "string",
          "name": "_name",
          "type": "string"
        },
        {
          "internalType": "uint256",
          "name": "_age",
          "type": "uint256"
        },
        {
          "internalType": "string",
          "name": "_city",
          "type": "string"
        },
        {
          "internalType": "string",
          "name": "_aadharNumber",
          "type": "string"
        },
        {
          "internalType": "string",
          "name": "_email",
          "type": "string"
        },
        {
          "internalType": "string",
          "name": "_panNumber",
          "type": "string"
        }
      ],
      "name": "updateBuyer",
      "outputs": [],
      "stateMutability": "nonpayable",
      "type": "function"
    },
    {
      "inputs": [],
      "name": "getBuyer",
      "outputs": [
        {
          "internalType": "address[]",
          "name": "",
          "type": "address[]"
        }
      ],
      "stateMutability": "view",
      "type": "function",
      "constant": true
    },
    {
      "inputs": [
        {
          "internalType": "address",
          "name": "i",
          "type": "address"
        }
      ],
      "name": "getBuyerDetails",
      "outputs": [
        {
          "internalType": "string",
          "name": "",
          "type": "string"
        },
        {
          "internalType": "string",
          "name": "",
          "type": "string"
        },
        {
          "internalType": "string",
          "name": "",
          "type": "string"
        },
        {
          "internalType": "string",
          "name": "",
          "type": "string"
        },
        {
          "internalType": "string",
          "name": "",
          "type": "string"
        },
        {
          "internalType": "uint256",
          "name": "",
          "type": "uint256"
        },
        {
          "internalType": "string",
          "name": "",
          "type": "string"
        }
      ],
      "stateMutability": "view",
      "type": "function",
      "constant": true
    },
    {
      "inputs": [
        {
          "internalType": "address",
          "name": "_sellerId",
          "type": "address"
        },
        {
          "internalType": "uint256",
          "name": "_landId",
          "type": "uint256"
        }
      ],
      "name": "requestLand",
      "outputs": [],
      "stateMutability": "nonpayable",
      "type": "function"
    },
    {
      "inputs": [
        {
          "internalType": "uint256",
          "name": "i",
          "type": "uint256"
        }
      ],
      "name": "getRequestDetails",
      "outputs": [
        {
          "internalType": "address",
          "name": "",
          "type": "address"
        },
        {
          "internalType": "address",
          "name": "",
          "type": "address"
        },
        {
          "internalType": "uint256",
          "name": "",
          "type": "uint256"
        },
        {
          "internalType": "bool",
          "name": "",
          "type": "bool"
        }
      ],
      "stateMutability": "view",
      "type": "function",
      "constant": true
    },
    {
      "inputs": [
        {
          "internalType": "uint256",
          "name": "_reqId",
          "type": "uint256"
        }
      ],
      "name": "approveRequest",
      "outputs": [],
      "stateMutability": "nonpayable",
      "type": "function"
    },
    {
      "inputs": [
        {
          "internalType": "uint256",
          "name": "_landId",
          "type": "uint256"
        },
        {
          "internalType": "address",
          "name": "_newOwner",
          "type": "address"
        }
      ],
      "name": "LandOwnershipTransfer",
      "outputs": [],
      "stateMutability": "nonpayable",
      "type": "function"
    },
    {
      "inputs": [
        {
          "internalType": "address payable",
          "name": "_receiver",
          "type": "address"
        },
        {
          "internalType": "uint256",
          "name": "_landId",
          "type": "uint256"
        }
      ],
      "name": "payment",
      "outputs": [],
      "stateMutability": "payable",
      "type": "function",
      "payable": true
    }
  ],
  "bytecode": "0x60806040523480156200001157600080fd5b5060118054600160a060020a03191633179055604080518082018252600b81527f496e73706563746f7220310000000000000000000000000000000000000000006020808301919091528251808401909352600e83527f54656873696c204d616e6167657200000000000000000000000000000000000090830152620000a391602d90640100000000620000a9810204565b6200031c565b60158054906000620000bb8362000136565b909155505060408051608081018252601554808252602080830187815283850187905260608401869052600092835260019182905293909120825181559251919291908201906200010d90826200024a565b5060408201516002820155606082015160038201906200012e90826200024a565b505050505050565b60006001820162000170577f4e487b7100000000000000000000000000000000000000000000000000000000600052601160045260246000fd5b5060010190565b7f4e487b7100000000000000000000000000000000000000000000000000000000600052604160045260246000fd5b600281046001821680620001bb57607f821691505b602082108103620001f5577f4e487b7100000000000000000000000000000000000000000000000000000000600052602260045260246000fd5b50919050565b601f82111562000245576000818152602081206020601f86010481016020861015620002245750805b6020601f860104820191505b818110156200012e5782815560010162000230565b505050565b81516001604060020a0381111562000266576200026662000177565b6200027e81620002778454620001a6565b84620001fb565b602080601f831160018114620002ba57600084156200029d5750858301515b60028086026008870290910a60001904198216178655506200012e565b600085815260208120601f198616915b82811015620002eb57888601518255948401946001909101908401620002ca565b50858210156200030c57878501516008601f88160260020a60001904191681555b5050505050600202600101905550565b613c23806200032c6000396000f3fe608060405260043610610431576000357c010000000000000000000000000000000000000000000000000000000090048063a47d4c0211610245578063dd9d122d11610145578063e7572230116100d8578063f34d4c63116100a7578063f58f85b51161008c578063f58f85b514610f1c578063f9c43bdf14610f4c578063fbfa4b7f14610f6c57600080fd5b8063f34d4c6314610e4c578063f3f0c21814610efc57600080fd5b8063e757223014610dae578063ee95feaf14610dde578063f0d3a9df14610e17578063f2aa821814610e2c57600080fd5b8063e1ecc79411610114578063e1ecc79414610d09578063e261f1e514610d29578063e4b2611514610d5e578063e530c40014610d8e57600080fd5b8063dd9d122d14610c62578063dec091ad14610c77578063def936c314610caa578063e165af8714610cda57600080fd5b8063bed403c7116101d8578063cee26ed5116101a7578063d71306511161018c578063d713065114610c0d578063d7d1bbdb14610c2d578063dbd0e1b614610c4d57600080fd5b8063cee26ed514610bcd578063d1760e6014610bed57600080fd5b8063bed403c714610b24578063c3c5a54714610b44578063c560b4e514610b7d578063cd392a8314610b9d57600080fd5b8063b0a5dcd311610214578063b0a5dcd314610a3d578063b3c8fe8514610abc578063b9209e3314610aee578063ba49a08c14610b0e57600080fd5b8063a47d4c0214610979578063a4a0f6c0146109a9578063a6dc41fb146109d9578063ab51707414610a0957600080fd5b8063601e7c34116103505780637910867b116102e357806393383648116102b2578063989376b411610297578063989376b4146108fd5780639ae9711e1461092d5780639dc1bfa91461094357600080fd5b806393383648146108c7578063941e2426146108e757600080fd5b80637910867b1461081757806383546501146108475780638965cde11461087757806389d213541461089757600080fd5b806367a09c231161031f57806367a09c23146107815780636814800b1461079457806368cfe6ee146107b45780636cbf6cf8146107e757600080fd5b8063601e7c34146106cf578063603daf9a146106ff57806363f17143146107215780636490c7a81461075157600080fd5b80632607aafa116103c857806344c9af281161039757806344c9af281461063f57806348a46bd31461065f5780634daa9dae1461067f5780634e2cba09146106af57600080fd5b80632607aafa146105a45780632a55feec146105d15780633410452a1461060a5780633f9b250a1461061f57600080fd5b8063170f390911610404578063170f3909146104f05780631869a38b146105285780631a07f76e1461055e5780631c9afd0f1461058e57600080fd5b806307d56ac01461043657806311ce462c14610479578063155fec721461049b57806316d9d666146104db575b600080fd5b34801561044257600080fd5b5061046661045136600461320c565b60009081526020819052604090206005015490565b6040519081526020015b60405180910390f35b34801561048557600080fd5b506104996104943660046132e1565b610f82565b005b3480156104a757600080fd5b506104cb6104b636600461320c565b6000908152600f602052604090205460ff1690565b6040519015158152602001610470565b3480156104e757600080fd5b50601454610466565b3480156104fc57600080fd5b5060115461051090600160a060020a031681565b604051600160a060020a039091168152602001610470565b34801561053457600080fd5b5061051061054336600461320c565b6000908152600d6020526040902054600160a060020a031690565b34801561056a57600080fd5b506104cb61057936600461320c565b60106020526000908152604090205460ff1681565b34801561059a57600080fd5b5061046660145481565b3480156105b057600080fd5b506105c46105bf36600461320c565b61108a565b6040516104709190613401565b3480156105dd57600080fd5b506104cb6105ec366004613433565b600160a060020a031660009081526007602052604090205460ff1690565b34801561061657600080fd5b50601854610466565b34801561062b57600080fd5b506105c461063a36600461320c565b61112f565b34801561064b57600080fd5b506105c461065a36600461320c565b61114f565b34801561066b57600080fd5b506104cb61067a366004613433565b61116f565b34801561068b57600080fd5b506104cb61069a36600461320c565b600f6020526000908152604090205460ff1681565b3480156106bb57600080fd5b506104996106ca366004613450565b6111b4565b3480156106db57600080fd5b506104cb6106ea366004613433565b60066020526000908152604090205460ff1681565b34801561070b57600080fd5b506107146113e9565b6040516104709190613550565b34801561072d57600080fd5b506104cb61073c366004613433565b60096020526000908152604090205460ff1681565b34801561075d57600080fd5b5061046661076c36600461320c565b60009081526020819052604090206001015490565b61049961078f36600461359d565b61144b565b3480156107a057600080fd5b506104996107af366004613433565b611498565b3480156107c057600080fd5b506107d46107cf366004613433565b611550565b60405161047097969594939291906135c9565b3480156107f357600080fd5b506104cb61080236600461320c565b6000908152600c602052604090205460ff1690565b34801561082357600080fd5b506104cb61083236600461320c565b6000908152600e602052604090205460ff1690565b34801561085357600080fd5b506104cb61086236600461320c565b600c6020526000908152604090205460ff1681565b34801561088357600080fd5b50610499610892366004613433565b611970565b3480156108a357600080fd5b506104cb6108b236600461320c565b600e6020526000908152604090205460ff1681565b3480156108d357600080fd5b506104996108e23660046132e1565b611a21565b3480156108f357600080fd5b5061046660155481565b34801561090957600080fd5b506104cb610918366004613433565b600b6020526000908152604090205460ff1681565b34801561093957600080fd5b5061046660165481565b34801561094f57600080fd5b5061051061095e36600461320c565b600d60205260009081526040902054600160a060020a031681565b34801561098557600080fd5b506104cb610994366004613433565b60076020526000908152604090205460ff1681565b3480156109b557600080fd5b506104666109c436600461320c565b60009081526020819052604090206006015490565b3480156109e557600080fd5b506104cb6109f4366004613433565b600a6020526000908152604090205460ff1681565b348015610a1557600080fd5b50610a29610a24366004613433565b611c38565b604051610470989796959493929190613652565b348015610a4957600080fd5b50610a8c610a5836600461320c565b60046020526000908152604090208054600182015460028301546003909301549192600160a060020a039182169291169084565b6040516104709493929190938452600160a060020a03928316602085015291166040830152606082015260800190565b348015610ac857600080fd5b50610adc610ad7366004613433565b611fb3565b604051610470969594939291906136ee565b348015610afa57600080fd5b506104cb610b09366004613433565b61230a565b348015610b1a57600080fd5b5061046660175481565b348015610b3057600080fd5b50610499610b3f366004613762565b61234b565b348015610b5057600080fd5b506104cb610b5f366004613433565b600160a060020a031660009081526005602052604090205460ff1690565b348015610b8957600080fd5b50610499610b98366004613792565b6123e3565b348015610ba957600080fd5b506104cb610bb836600461320c565b60009081526010602052604090205460ff1690565b348015610bd957600080fd5b50610510610be836600461320c565b6124c9565b348015610bf957600080fd5b50610499610c08366004613433565b6124f3565b348015610c1957600080fd5b506105c4610c2836600461320c565b6125a4565b348015610c3957600080fd5b50610499610c4836600461320c565b6125c4565b348015610c5957600080fd5b50610714612695565b348015610c6e57600080fd5b50601654610466565b348015610c8357600080fd5b50610c97610c92366004613433565b6126f5565b6040516104709796959493929190613849565b348015610cb657600080fd5b50610cca610cc536600461320c565b6129e2565b60405161047094939291906138bf565b348015610ce657600080fd5b506104cb610cf5366004613433565b601154600160a060020a0390811691161490565b348015610d1557600080fd5b50610499610d24366004613433565b612b1a565b348015610d3557600080fd5b50610d49610d4436600461320c565b612bcb565b604051610470999897969594939291906138fb565b348015610d6a57600080fd5b506104cb610d79366004613433565b60086020526000908152604090205460ff1681565b348015610d9a57600080fd5b50610499610da936600461397a565b612e32565b348015610dba57600080fd5b50610466610dc936600461320c565b60009081526020819052604090206004015490565b348015610dea57600080fd5b506104cb610df9366004613433565b600160a060020a031660009081526006602052604090205460ff1690565b348015610e2357600080fd5b50601754610466565b348015610e3857600080fd5b50610510610e4736600461320c565b613018565b348015610e5857600080fd5b50610ecf610e6736600461320c565b60008181526004602090815260408083208151608081018352815481526001820154600160a060020a0390811682860181905260028401549091168285018190526003909301546060909201829052958552600e90935292205492939192909160ff90911690565b60408051600160a060020a0395861681529490931660208501529183015215156060820152608001610470565b348015610f0857600080fd5b50610499610f1736600461359d565b613028565b348015610f2857600080fd5b506104cb610f37366004613433565b60056020526000908152604090205460ff1681565b348015610f5857600080fd5b50610499610f6736600461320c565b613194565b348015610f7857600080fd5b5061046660185481565b3360009081526007602052604090205460ff16610fe95760405160e560020a62461bcd02815260206004820152601660248201527f4e6f74206120726567697374657265642062757965720000000000000000000060448201526064015b60405180910390fd5b3360009081526003602052604090206001016110058782613ae7565b50336000908152600360208190526040909120600281018790550161102a8582613ae7565b503360009081526003602052604090206004016110478482613ae7565b503360009081526003602052604090206007016110648382613ae7565b503360009081526003602052604090206005016110818282613ae7565b50505050505050565b60008181526020819052604090206007018054606091906110aa90613a4e565b80601f01602080910402602001604051908101604052809291908181526020018280546110d690613a4e565b80156111235780601f106110f857610100808354040283529160200191611123565b820191906000526020600020905b81548152906001019060200180831161110657829003601f168201915b50505050509050919050565b60008181526020819052604090206008018054606091906110aa90613a4e565b60008181526020819052604090206003018054606091906110aa90613a4e565b600160a060020a03811660009081526009602052604081205460ff16806111ae5750600160a060020a0382166000908152600b602052604090205460ff165b92915050565b3360009081526005602052604090205460ff16156112175760405160e560020a62461bcd02815260206004820152601860248201527f427579657220616c7265616479207265676973746572656400000000000000006044820152606401610fe0565b3360009081526005602090815260408083208054600160ff19918216811790925560079093529083208054909216179055601780549161125683613bad565b909155505060408051610100810182523380825260208083018b81528385018b9052606084018a90526080840189905260a0840188905260c0840187905260e08401869052600092835260039091529290208151815473ffffffffffffffffffffffffffffffffffffffff1916600160a060020a03909116178155915190919060018201906112e59082613ae7565b5060408201516002820155606082015160038201906113049082613ae7565b50608082015160048201906113199082613ae7565b5060a0820151600582019061132e9082613ae7565b5060c082015160068201906113439082613ae7565b5060e082015160078201906113589082613ae7565b5050601380546001810182556000919091527f66de8ffda797e3de9c05e8fc57b3bf0ec28a930d40b0d285d93c06501cf6a09001805473ffffffffffffffffffffffffffffffffffffffff1916339081179091556040519081527f478f5152d8fc568db3f8de9fb402fd9d98a1a7541ecfe434e59cf574fbfc5524915060200160405180910390a150505050505050565b6060601380548060200260200160405190810160405280929190818152602001828054801561144157602002820191906000526020600020905b8154600160a060020a03168152600190910190602001808311611423575b5050505050905090565b600081815260106020526040808220805460ff1916600117905551600160a060020a038416913480156108fc02929091818181858888f1935050505015801561149357600080fd5b505050565b601154600160a060020a031633146114f55760405160e560020a62461bcd02815260206004820152601960248201527f4f6e6c7920696e73706563746f722063616e20766572696679000000000000006044820152606401610fe0565b600160a060020a0381166000818152600a6020908152604091829020805460ff1916600117905590519182527f6a6455914f452787eb3985452aceedc1000fb545e394eb3b370e3d08958e0a5b91015b60405180910390a150565b6060806060806060600060606000600360008a600160a060020a0316600160a060020a03168152602001908152602001600020604051806101000160405290816000820160009054906101000a9004600160a060020a0316600160a060020a0316600160a060020a031681526020016001820180546115ce90613a4e565b80601f01602080910402602001604051908101604052809291908181526020018280546115fa90613a4e565b80156116475780601f1061161c57610100808354040283529160200191611647565b820191906000526020600020905b81548152906001019060200180831161162a57829003601f168201915b505050505081526020016002820154815260200160038201805461166a90613a4e565b80601f016020809104026020016040519081016040528092919081815260200182805461169690613a4e565b80156116e35780601f106116b8576101008083540402835291602001916116e3565b820191906000526020600020905b8154815290600101906020018083116116c657829003601f168201915b505050505081526020016004820180546116fc90613a4e565b80601f016020809104026020016040519081016040528092919081815260200182805461172890613a4e565b80156117755780601f1061174a57610100808354040283529160200191611775565b820191906000526020600020905b81548152906001019060200180831161175857829003601f168201915b5050505050815260200160058201805461178e90613a4e565b80601f01602080910402602001604051908101604052809291908181526020018280546117ba90613a4e565b80156118075780601f106117dc57610100808354040283529160200191611807565b820191906000526020600020905b8154815290600101906020018083116117ea57829003601f168201915b5050505050815260200160068201805461182090613a4e565b80601f016020809104026020016040519081016040528092919081815260200182805461184c90613a4e565b80156118995780601f1061186e57610100808354040283529160200191611899565b820191906000526020600020905b81548152906001019060200180831161187c57829003601f168201915b505050505081526020016007820180546118b290613a4e565b80601f01602080910402602001604051908101604052809291908181526020018280546118de90613a4e565b801561192b5780601f106119005761010080835404028352916020019161192b565b820191906000526020600020905b81548152906001019060200180831161190e57829003601f168201915b505050919092525050506020810151606082015160a083015160c084015160e08501516040860151608090960151949f939e50919c509a509850919650945092505050565b601154600160a060020a031633146119cd5760405160e560020a62461bcd02815260206004820152601960248201527f4f6e6c7920696e73706563746f722063616e2072656a656374000000000000006044820152606401610fe0565b600160a060020a0381166000818152600b6020908152604091829020805460ff1916600117905590519182527faf77f8960cf590e245ec8b6d41c193a5dcacad8986ae4eb57ac9e5be7b6af0319101611545565b3360009081526005602052604090205460ff1615611a845760405160e560020a62461bcd02815260206004820152601960248201527f53656c6c657220616c72656164792072656769737465726564000000000000006044820152606401610fe0565b3360009081526005602090815260408083208054600160ff199182168117909255600690935290832080549092161790556016805491611ac383613bad565b90915550506040805160e0810182523380825260208083018a81528385018a9052606084018990526080840188905260a0840187905260c08401869052600092835260029091529290208151815473ffffffffffffffffffffffffffffffffffffffff1916600160a060020a0390911617815591519091906001820190611b4a9082613ae7565b506040820151600282015560608201516003820190611b699082613ae7565b5060808201516004820190611b7e9082613ae7565b5060a08201516005820190611b939082613ae7565b5060c08201516006820190611ba89082613ae7565b5050601280546001810182556000919091527fbb8a6a4669ba250d26cd7a459eca9d215f8307e33aebe50379bc5a3617ec344401805473ffffffffffffffffffffffffffffffffffffffff1916339081179091556040519081527f478f5152d8fc568db3f8de9fb402fd9d98a1a7541ecfe434e59cf574fbfc5524915060200160405180910390a1505050505050565b60036020526000908152604090208054600182018054600160a060020a039092169291611c6490613a4e565b80601f0160208091040260200160405190810160405280929190818152602001828054611c9090613a4e565b8015611cdd5780601f10611cb257610100808354040283529160200191611cdd565b820191906000526020600020905b815481529060010190602001808311611cc057829003601f168201915b505050505090806002015490806003018054611cf890613a4e565b80601f0160208091040260200160405190810160405280929190818152602001828054611d2490613a4e565b8015611d715780601f10611d4657610100808354040283529160200191611d71565b820191906000526020600020905b815481529060010190602001808311611d5457829003601f168201915b505050505090806004018054611d8690613a4e565b80601f0160208091040260200160405190810160405280929190818152602001828054611db290613a4e565b8015611dff5780601f10611dd457610100808354040283529160200191611dff565b820191906000526020600020905b815481529060010190602001808311611de257829003601f168201915b505050505090806005018054611e1490613a4e565b80601f0160208091040260200160405190810160405280929190818152602001828054611e4090613a4e565b8015611e8d5780601f10611e6257610100808354040283529160200191611e8d565b820191906000526020600020905b815481529060010190602001808311611e7057829003601f168201915b505050505090806006018054611ea290613a4e565b80601f0160208091040260200160405190810160405280929190818152602001828054611ece90613a4e565b8015611f1b5780601f10611ef057610100808354040283529160200191611f1b565b820191906000526020600020905b815481529060010190602001808311611efe57829003601f168201915b505050505090806007018054611f3090613a4e565b80601f0160208091040260200160405190810160405280929190818152602001828054611f5c90613a4e565b8015611fa95780601f10611f7e57610100808354040283529160200191611fa9565b820191906000526020600020905b815481529060010190602001808311611f8c57829003601f168201915b5050505050905088565b600160a060020a038082166000908152600260209081526040808320815160e08101909252805490941681526001840180546060958694859485948594899492938401919061200190613a4e565b80601f016020809104026020016040519081016040528092919081815260200182805461202d90613a4e565b801561207a5780601f1061204f5761010080835404028352916020019161207a565b820191906000526020600020905b81548152906001019060200180831161205d57829003601f168201915b505050505081526020016002820154815260200160038201805461209d90613a4e565b80601f01602080910402602001604051908101604052809291908181526020018280546120c990613a4e565b80156121165780601f106120eb57610100808354040283529160200191612116565b820191906000526020600020905b8154815290600101906020018083116120f957829003601f168201915b5050505050815260200160048201805461212f90613a4e565b80601f016020809104026020016040519081016040528092919081815260200182805461215b90613a4e565b80156121a85780601f1061217d576101008083540402835291602001916121a8565b820191906000526020600020905b81548152906001019060200180831161218b57829003601f168201915b505050505081526020016005820180546121c190613a4e565b80601f01602080910402602001604051908101604052809291908181526020018280546121ed90613a4e565b801561223a5780601f1061220f5761010080835404028352916020019161223a565b820191906000526020600020905b81548152906001019060200180831161221d57829003601f168201915b5050505050815260200160068201805461225390613a4e565b80601f016020809104026020016040519081016040528092919081815260200182805461227f90613a4e565b80156122cc5780601f106122a1576101008083540402835291602001916122cc565b820191906000526020600020905b8154815290600101906020018083116122af57829003601f168201915b50505091909252505050602081015160408201516060830151608084015160a085015160c090950151939d929c50909a509850919650945092505050565b600160a060020a03811660009081526008602052604081205460ff16806111ae575050600160a060020a03166000908152600a602052604090205460ff1690565b601154600160a060020a031633146123a85760405160e560020a62461bcd02815260206004820181905260248201527f4f6e6c7920696e73706563746f722063616e207472616e73666572206c616e646044820152606401610fe0565b6000918252600d6020526040909120805473ffffffffffffffffffffffffffffffffffffffff1916600160a060020a03909216919091179055565b3360009081526006602052604090205460ff166124455760405160e560020a62461bcd02815260206004820152601760248201527f4e6f74206120726567697374657265642073656c6c65720000000000000000006044820152606401610fe0565b3360009081526002602052604090206001016124618682613ae7565b503360009081526002602081905260409091209081018590556003016124878482613ae7565b503360009081526002602052604090206004016124a48382613ae7565b503360009081526002602052604090206005016124c18282613ae7565b505050505050565b601281815481106124d957600080fd5b600091825260209091200154600160a060020a0316905081565b601154600160a060020a031633146125505760405160e560020a62461bcd02815260206004820152601960248201527f4f6e6c7920696e73706563746f722063616e20766572696679000000000000006044820152606401610fe0565b600160a060020a038116600081815260086020908152604091829020805460ff1916600117905590519182527f6a6455914f452787eb3985452aceedc1000fb545e394eb3b370e3d08958e0a5b9101611545565b60008181526020819052604090206002018054606091906110aa90613a4e565b3360009081526006602052604090205460ff1680156125e757506125e73361230a565b6126365760405160e560020a62461bcd02815260206004820181905260248201527f4f6e6c792076657269666965642073656c6c65722063616e20617070726f76656044820152606401610fe0565b6000818152600e60209081526040808320805460ff191660011790556004825291829020600201549151600160a060020a0390921682527f8a4f09e998df730e26136dade9c347d652f8551d9a749ba09ad9236a44606d059101611545565b6060601280548060200260200160405190810160405280929190818152602001828054801561144157602002820191906000526020600020908154600160a060020a03168152600190910190602001808311611423575050505050905090565b60026020526000908152604090208054600182018054600160a060020a03909216929161272190613a4e565b80601f016020809104026020016040519081016040528092919081815260200182805461274d90613a4e565b801561279a5780601f1061276f5761010080835404028352916020019161279a565b820191906000526020600020905b81548152906001019060200180831161277d57829003601f168201915b5050505050908060020154908060030180546127b590613a4e565b80601f01602080910402602001604051908101604052809291908181526020018280546127e190613a4e565b801561282e5780601f106128035761010080835404028352916020019161282e565b820191906000526020600020905b81548152906001019060200180831161281157829003601f168201915b50505050509080600401805461284390613a4e565b80601f016020809104026020016040519081016040528092919081815260200182805461286f90613a4e565b80156128bc5780601f10612891576101008083540402835291602001916128bc565b820191906000526020600020905b81548152906001019060200180831161289f57829003601f168201915b5050505050908060050180546128d190613a4e565b80601f01602080910402602001604051908101604052809291908181526020018280546128fd90613a4e565b801561294a5780601f1061291f5761010080835404028352916020019161294a565b820191906000526020600020905b81548152906001019060200180831161292d57829003601f168201915b50505050509080600601805461295f90613a4e565b80601f016020809104026020016040519081016040528092919081815260200182805461298b90613a4e565b80156129d85780601f106129ad576101008083540402835291602001916129d8565b820191906000526020600020905b8154815290600101906020018083116129bb57829003601f168201915b5050505050905087565b600160208190526000918252604090912080549181018054612a0390613a4e565b80601f0160208091040260200160405190810160405280929190818152602001828054612a2f90613a4e565b8015612a7c5780601f10612a5157610100808354040283529160200191612a7c565b820191906000526020600020905b815481529060010190602001808311612a5f57829003601f168201915b505050505090806002015490806003018054612a9790613a4e565b80601f0160208091040260200160405190810160405280929190818152602001828054612ac390613a4e565b8015612b105780601f10612ae557610100808354040283529160200191612b10565b820191906000526020600020905b815481529060010190602001808311612af357829003601f168201915b5050505050905084565b601154600160a060020a03163314612b775760405160e560020a62461bcd02815260206004820152601960248201527f4f6e6c7920696e73706563746f722063616e2072656a656374000000000000006044820152606401610fe0565b600160a060020a038116600081815260096020908152604091829020805460ff1916600117905590519182527faf77f8960cf590e245ec8b6d41c193a5dcacad8986ae4eb57ac9e5be7b6af0319101611545565b60006020819052908152604090208054600182015460028301805492939192612bf390613a4e565b80601f0160208091040260200160405190810160405280929190818152602001828054612c1f90613a4e565b8015612c6c5780601f10612c4157610100808354040283529160200191612c6c565b820191906000526020600020905b815481529060010190602001808311612c4f57829003601f168201915b505050505090806003018054612c8190613a4e565b80601f0160208091040260200160405190810160405280929190818152602001828054612cad90613a4e565b8015612cfa5780601f10612ccf57610100808354040283529160200191612cfa565b820191906000526020600020905b815481529060010190602001808311612cdd57829003601f168201915b505050505090806004015490806005015490806006015490806007018054612d2190613a4e565b80601f0160208091040260200160405190810160405280929190818152602001828054612d4d90613a4e565b8015612d9a5780601f10612d6f57610100808354040283529160200191612d9a565b820191906000526020600020905b815481529060010190602001808311612d7d57829003601f168201915b505050505090806008018054612daf90613a4e565b80601f0160208091040260200160405190810160405280929190818152602001828054612ddb90613a4e565b8015612e285780601f10612dfd57610100808354040283529160200191612e28565b820191906000526020600020905b815481529060010190602001808311612e0b57829003601f168201915b5050505050905089565b3360009081526006602052604090205460ff168015612e555750612e553361230a565b612eca5760405160e560020a62461bcd02815260206004820152602160248201527f4f6e6c792076657269666965642073656c6c65722063616e20616464206c616e60448201527f64000000000000000000000000000000000000000000000000000000000000006064820152608401610fe0565b60148054906000612eda83613bad565b9091555050604080516101208101825260145480825260208083018c81528385018c8152606085018c9052608085018b905260a085018a905260c0850189905260e085018890526101008501879052600093845291839052939091208251815592516001840155519091906002820190612f549082613ae7565b5060608201516003820190612f699082613ae7565b506080820151600482015560a0820151600582015560c0820151600682015560e08201516007820190612f9c9082613ae7565b506101008201516008820190612fb29082613ae7565b5050601480546000908152600d6020526040808220805473ffffffffffffffffffffffffffffffffffffffff191633179055915491519192507f1683494da6843132b363282b9c61279cdc5f214c099a31557fc4d0eaad2f4d2991a25050505050505050565b601381815481106124d957600080fd5b3360009081526007602052604090205460ff16801561304b575061304b3361230a565b61309a5760405160e560020a62461bcd02815260206004820152601f60248201527f4f6e6c792076657269666965642062757965722063616e2072657175657374006044820152606401610fe0565b601880549060006130aa83613bad565b90915550506040805160808101825260188054808352600160a060020a03868116602080860182815233878901908152606088018a81526000968752600484528987209851895591516001808a01805492881673ffffffffffffffffffffffffffffffffffffffff19938416179055915160028a018054919097169116179094555160039096019590955583548352600e8552858320805460ff1990811690915593548352600f85529185902080549093161790915591519182527f226be41bcaf9760851410ade1cd6450b48b6b4d0adc46c61ea33b5a37b41bad7910160405180910390a15050565b601154600160a060020a031633146131f15760405160e560020a62461bcd02815260206004820152601960248201527f4f6e6c7920696e73706563746f722063616e20766572696679000000000000006044820152606401610fe0565b6000908152600c60205260409020805460ff19166001179055565b60006020828403121561321e57600080fd5b5035919050565b7f4e487b7100000000000000000000000000000000000000000000000000000000600052604160045260246000fd5b600082601f83011261326557600080fd5b813567ffffffffffffffff8082111561328057613280613225565b604051601f8301601f19908116603f011681019082821181831017156132a8576132a8613225565b816040528381528660208588010111156132c157600080fd5b836020870160208301376000602085830101528094505050505092915050565b60008060008060008060c087890312156132fa57600080fd5b863567ffffffffffffffff8082111561331257600080fd5b61331e8a838b01613254565b975060208901359650604089013591508082111561333b57600080fd5b6133478a838b01613254565b9550606089013591508082111561335d57600080fd5b6133698a838b01613254565b9450608089013591508082111561337f57600080fd5b61338b8a838b01613254565b935060a08901359150808211156133a157600080fd5b506133ae89828a01613254565b9150509295509295509295565b6000815180845260005b818110156133e1576020818501810151868301820152016133c5565b506000602082860101526020601f19601f83011685010191505092915050565b60208152600061341460208301846133bb565b9392505050565b600160a060020a038116811461343057600080fd5b50565b60006020828403121561344557600080fd5b81356134148161341b565b600080600080600080600060e0888a03121561346b57600080fd5b873567ffffffffffffffff8082111561348357600080fd5b61348f8b838c01613254565b985060208a0135975060408a01359150808211156134ac57600080fd5b6134b88b838c01613254565b965060608a01359150808211156134ce57600080fd5b6134da8b838c01613254565b955060808a01359150808211156134f057600080fd5b6134fc8b838c01613254565b945060a08a013591508082111561351257600080fd5b61351e8b838c01613254565b935060c08a013591508082111561353457600080fd5b506135418a828b01613254565b91505092959891949750929550565b6020808252825182820181905260009190848201906040850190845b81811015613591578351600160a060020a03168352928401929184019160010161356c565b50909695505050505050565b600080604083850312156135b057600080fd5b82356135bb8161341b565b946020939093013593505050565b60e0815260006135dc60e083018a6133bb565b82810360208401526135ee818a6133bb565b9050828103604084015261360281896133bb565b9050828103606084015261361681886133bb565b9050828103608084015261362a81876133bb565b90508460a084015282810360c084015261364481856133bb565b9a9950505050505050505050565b6000610100600160a060020a038b1683528060208401526136758184018b6133bb565b9050886040840152828103606084015261368f81896133bb565b905082810360808401526136a381886133bb565b905082810360a08401526136b781876133bb565b905082810360c08401526136cb81866133bb565b905082810360e08401526136df81856133bb565b9b9a5050505050505050505050565b60c08152600061370160c08301896133bb565b876020840152828103604084015261371981886133bb565b9050828103606084015261372d81876133bb565b9050828103608084015261374181866133bb565b905082810360a084015261375581856133bb565b9998505050505050505050565b6000806040838503121561377557600080fd5b8235915060208301356137878161341b565b809150509250929050565b600080600080600060a086880312156137aa57600080fd5b853567ffffffffffffffff808211156137c257600080fd5b6137ce89838a01613254565b96506020880135955060408801359150808211156137eb57600080fd5b6137f789838a01613254565b9450606088013591508082111561380d57600080fd5b61381989838a01613254565b9350608088013591508082111561382f57600080fd5b5061383c88828901613254565b9150509295509295909350565b600160a060020a038816815260e06020820152600061386b60e08301896133bb565b876040840152828103606084015261388381886133bb565b9050828103608084015261389781876133bb565b905082810360a08401526138ab81866133bb565b905082810360c084015261364481856133bb565b8481526080602082015260006138d860808301866133bb565b84604084015282810360608401526138f081856133bb565b979650505050505050565b60006101208b83528a602084015280604084015261391b8184018b6133bb565b9050828103606084015261392f818a6133bb565b90508760808401528660a08401528560c084015282810360e084015261395581866133bb565b905082810361010084015261396a81856133bb565b9c9b505050505050505050505050565b600080600080600080600080610100898b03121561399757600080fd5b88359750602089013567ffffffffffffffff808211156139b657600080fd5b6139c28c838d01613254565b985060408b01359150808211156139d857600080fd5b6139e48c838d01613254565b975060608b0135965060808b0135955060a08b0135945060c08b0135915080821115613a0f57600080fd5b613a1b8c838d01613254565b935060e08b0135915080821115613a3157600080fd5b50613a3e8b828c01613254565b9150509295985092959890939650565b600281046001821680613a6257607f821691505b602082108103613a9b577f4e487b7100000000000000000000000000000000000000000000000000000000600052602260045260246000fd5b50919050565b601f821115611493576000818152602081206020601f86010481016020861015613ac85750805b6020601f860104820191505b818110156124c157828155600101613ad4565b815167ffffffffffffffff811115613b0157613b01613225565b613b1581613b0f8454613a4e565b84613aa1565b602080601f831160018114613b4e5760008415613b325750858301515b60028086026008870290910a60001904198216178655506124c1565b600085815260208120601f198616915b82811015613b7d57888601518255948401946001909101908401613b5e565b5085821015613b9d57878501516008601f88160260020a60001904191681555b5050505050600202600101905550565b600060018201613be6577f4e487b7100000000000000000000000000000000000000000000000000000000600052601160045260246000fd5b506001019056fea26469706673582212205945ef5e61e053c62370c2e446a5199565034aeb3ee8ba0881b64d269c6ffb3064736f6c63430008140033",
  "immutableReferences": {},
  "source": "// SPDX-License-Identifier: UNLICENSED\npragma solidity ^0.8.20;\n\ncontract Land {\n    struct Landreg {\n        uint id;\n        uint area;\n        string city;\n        string state;\n        uint landPrice;\n        uint propertyPID;\n        uint physicalSurveyNumber;\n        string ipfsHash;\n        string document;\n    }\n\n    struct Buyer {\n        address id;\n        string name;\n        uint age;\n        string city;\n        string aadharNumber;\n        string panNumber;\n        string document;\n        string email;\n    }\n\n    struct Seller {\n        address id;\n        string name;\n        uint age;\n        string aadharNumber;\n        string panNumber;\n        string landsOwned;\n        string document;\n    }\n\n    struct LandInspector {\n        uint id;\n        string name;\n        uint age;\n        string designation;\n    }\n\n    struct LandRequest {\n        uint reqId;\n        address sellerId;\n        address buyerId;\n        uint landId;\n    }\n\n    // Mappings\n    mapping(uint => Landreg) public lands;\n    mapping(uint => LandInspector) public InspectorMapping;\n    mapping(address => Seller) public SellerMapping;\n    mapping(address => Buyer) public BuyerMapping;\n    mapping(uint => LandRequest) public RequestsMapping;\n\n    mapping(address => bool) public RegisteredAddressMapping;\n    mapping(address => bool) public RegisteredSellerMapping;\n    mapping(address => bool) public RegisteredBuyerMapping;\n    mapping(address => bool) public SellerVerification;\n    mapping(address => bool) public SellerRejection;\n    mapping(address => bool) public BuyerVerification;\n    mapping(address => bool) public BuyerRejection;\n    mapping(uint => bool) public LandVerification;\n    mapping(uint => address) public LandOwner;\n    mapping(uint => bool) public RequestStatus;\n    mapping(uint => bool) public RequestedLands;\n    mapping(uint => bool) public PaymentReceived;\n\n    address public Land_Inspector;\n    address[] public sellers;\n    address[] public buyers;\n\n    uint public landsCount;\n    uint public inspectorsCount;\n    uint public sellersCount;\n    uint public buyersCount;\n    uint public requestsCount;\n\n    // Events\n    event Registration(address _registrationId);\n    event AddingLand(uint indexed _landId);\n    event LandRequested(address _sellerId);\n    event RequestApproved(address _buyerId);\n    event Verified(address _id);\n    event Rejected(address _id);\n\n    constructor() {\n        Land_Inspector = msg.sender;\n        addLandInspector(\"Inspector 1\", 45, \"Tehsil Manager\");\n    }\n\n    // Private functions\n    function addLandInspector(string memory _name, uint _age, string memory _designation) private {\n        inspectorsCount++;\n        InspectorMapping[inspectorsCount] = LandInspector(inspectorsCount, _name, _age, _designation);\n    }\n\n    // Getters\n    function getLandsCount() public view returns (uint) { return landsCount; }\n    function getBuyersCount() public view returns (uint) { return buyersCount; }\n    function getSellersCount() public view returns (uint) { return sellersCount; }\n    function getRequestsCount() public view returns (uint) { return requestsCount; }\n\n    function getArea(uint i) public view returns (uint) { return lands[i].area; }\n    function getCity(uint i) public view returns (string memory) { return lands[i].city; }\n    function getState(uint i) public view returns (string memory) { return lands[i].state; }\n    function getPrice(uint i) public view returns (uint) { return lands[i].landPrice; }\n    function getPID(uint i) public view returns (uint) { return lands[i].propertyPID; }\n    function getSurveyNumber(uint i) public view returns (uint) { return lands[i].physicalSurveyNumber; }\n    function getImage(uint i) public view returns (string memory) { return lands[i].ipfsHash; }\n    function getDocument(uint i) public view returns (string memory) { return lands[i].document; }\n    function getLandOwner(uint id) public view returns (address) { return LandOwner[id]; }\n\n    // Verification functions\n    function verifySeller(address _sellerId) public {\n        require(isLandInspector(msg.sender), \"Only inspector can verify\");\n        SellerVerification[_sellerId] = true;\n        emit Verified(_sellerId);\n    }\n\n    function rejectSeller(address _sellerId) public {\n        require(isLandInspector(msg.sender), \"Only inspector can reject\");\n        SellerRejection[_sellerId] = true;\n        emit Rejected(_sellerId);\n    }\n\n    function verifyBuyer(address _buyerId) public {\n        require(isLandInspector(msg.sender), \"Only inspector can verify\");\n        BuyerVerification[_buyerId] = true;\n        emit Verified(_buyerId);\n    }\n\n    function rejectBuyer(address _buyerId) public {\n        require(isLandInspector(msg.sender), \"Only inspector can reject\");\n        BuyerRejection[_buyerId] = true;\n        emit Rejected(_buyerId);\n    }\n\n    function verifyLand(uint _landId) public {\n        require(isLandInspector(msg.sender), \"Only inspector can verify\");\n        LandVerification[_landId] = true;\n    }\n\n    // Boolean checkers (explicit returns)\n    function isLandVerified(uint _id) public view returns (bool) { return LandVerification[_id]; }\n    function isVerified(address _id) public view returns (bool) { return SellerVerification[_id] || BuyerVerification[_id]; }\n    function isRejected(address _id) public view returns (bool) { return SellerRejection[_id] || BuyerRejection[_id]; }\n    function isSeller(address _id) public view returns (bool) { return RegisteredSellerMapping[_id]; }\n    function isBuyer(address _id) public view returns (bool) { return RegisteredBuyerMapping[_id]; }\n    function isRegistered(address _id) public view returns (bool) { return RegisteredAddressMapping[_id]; }\n    function isLandInspector(address _id) public view returns (bool) { return Land_Inspector == _id; }\n    function isRequested(uint _id) public view returns (bool) { return RequestedLands[_id]; }\n    function isApproved(uint _id) public view returns (bool) { return RequestStatus[_id]; }\n    function isPaid(uint _landId) public view returns (bool) { return PaymentReceived[_landId]; }\n\n    // Core functions\n    function addLand(uint _area, string memory _city, string memory _state, uint landPrice, uint _propertyPID, uint _surveyNum, string memory _ipfsHash, string memory _document) public {\n        require(isSeller(msg.sender) && isVerified(msg.sender), \"Only verified seller can add land\");\n        landsCount++;\n        lands[landsCount] = Landreg(landsCount, _area, _city, _state, landPrice, _propertyPID, _surveyNum, _ipfsHash, _document);\n        LandOwner[landsCount] = msg.sender;\n        emit AddingLand(landsCount);\n    }\n\n    function registerSeller(string memory _name, uint _age, string memory _aadharNumber, string memory _panNumber, string memory _landsOwned, string memory _document) public {\n        require(!RegisteredAddressMapping[msg.sender], \"Seller already registered\");\n        RegisteredAddressMapping[msg.sender] = true;\n        RegisteredSellerMapping[msg.sender] = true;\n        sellersCount++;\n        SellerMapping[msg.sender] = Seller(msg.sender, _name, _age, _aadharNumber, _panNumber, _landsOwned, _document);\n        sellers.push(msg.sender);\n        emit Registration(msg.sender);\n    }\n\n    function updateSeller(string memory _name, uint _age, string memory _aadharNumber, string memory _panNumber, string memory _landsOwned) public {\n        require(isSeller(msg.sender), \"Not a registered seller\");\n        SellerMapping[msg.sender].name = _name;\n        SellerMapping[msg.sender].age = _age;\n        SellerMapping[msg.sender].aadharNumber = _aadharNumber;\n        SellerMapping[msg.sender].panNumber = _panNumber;\n        SellerMapping[msg.sender].landsOwned = _landsOwned;\n    }\n\n    function getSeller() public view returns (address[] memory) { return sellers; }\n    function getSellerDetails(address i) public view returns (string memory, uint, string memory, string memory, string memory, string memory) {\n        Seller memory s = SellerMapping[i];\n        return (s.name, s.age, s.aadharNumber, s.panNumber, s.landsOwned, s.document);\n    }\n\n    function registerBuyer(string memory _name, uint _age, string memory _city, string memory _aadharNumber, string memory _panNumber, string memory _document, string memory _email) public {\n        require(!RegisteredAddressMapping[msg.sender], \"Buyer already registered\");\n        RegisteredAddressMapping[msg.sender] = true;\n        RegisteredBuyerMapping[msg.sender] = true;\n        buyersCount++;\n        BuyerMapping[msg.sender] = Buyer(msg.sender, _name, _age, _city, _aadharNumber, _panNumber, _document, _email);\n        buyers.push(msg.sender);\n        emit Registration(msg.sender);\n    }\n\n    function updateBuyer(string memory _name, uint _age, string memory _city, string memory _aadharNumber, string memory _email, string memory _panNumber) public {\n        require(isBuyer(msg.sender), \"Not a registered buyer\");\n        BuyerMapping[msg.sender].name = _name;\n        BuyerMapping[msg.sender].age = _age;\n        BuyerMapping[msg.sender].city = _city;\n        BuyerMapping[msg.sender].aadharNumber = _aadharNumber;\n        BuyerMapping[msg.sender].email = _email;\n        BuyerMapping[msg.sender].panNumber = _panNumber;\n    }\n\n    function getBuyer() public view returns (address[] memory) { return buyers; }\n    function getBuyerDetails(address i) public view returns (string memory, string memory, string memory, string memory, string memory, uint, string memory) {\n        Buyer memory b = BuyerMapping[i];\n        return (b.name, b.city, b.panNumber, b.document, b.email, b.age, b.aadharNumber);\n    }\n\n    function requestLand(address _sellerId, uint _landId) public {\n        require(isBuyer(msg.sender) && isVerified(msg.sender), \"Only verified buyer can request\");\n        requestsCount++;\n        RequestsMapping[requestsCount] = LandRequest(requestsCount, _sellerId, msg.sender, _landId);\n        RequestStatus[requestsCount] = false;\n        RequestedLands[requestsCount] = true;\n        emit LandRequested(_sellerId);\n    }\n\n    function getRequestDetails(uint i) public view returns (address, address, uint, bool) {\n        LandRequest memory r = RequestsMapping[i];\n        return (r.sellerId, r.buyerId, r.landId, RequestStatus[i]);\n    }\n\n    function approveRequest(uint _reqId) public {\n        require(isSeller(msg.sender) && isVerified(msg.sender), \"Only verified seller can approve\");\n        RequestStatus[_reqId] = true;\n        emit RequestApproved(RequestsMapping[_reqId].buyerId);\n    }\n\n    function LandOwnershipTransfer(uint _landId, address _newOwner) public {\n        require(isLandInspector(msg.sender), \"Only inspector can transfer land\");\n        LandOwner[_landId] = _newOwner;\n    }\n\n    function payment(address payable _receiver, uint _landId) public payable {\n        PaymentReceived[_landId] = true;\n        _receiver.transfer(msg.value);\n    }\n}\n",
  "sourcePath": "/home/tsehay/Afriland/contracts/Land.sol",
  "compiler": {
    "name": "solc",
    "version": "0.8.20+commit.a1b79de6.Emscripten.clang"
  },
  "schemaVersion": "3.4.16",
  "updatedAt": "2025-09-17T15:07:44.621Z",
  "networkType": "ethereum",
  "devdoc": {
    "kind": "dev",
    "methods": {},
    "version": 1
  },
  "userdoc": {
    "kind": "user",
    "methods": {},
    "version": 1
  }
}